:020000040800F2
:10000000C8040020A90100080B220008B120000844
:100010000922000821040008ED2200080000000069
:100020000000000000000000000000000F22000897
:1000300097040008000000000D22000811220008AB
:10004000C3010008C3010008C3010008C301000880
:10005000C3010008C3010008D1040008C30100085F
:10006000C3010008C3010008C301000825040008FB
:10007000C3010008C3010008C3010008C301000850
:10008000C3010008C3010008B5020008C30100084D
:10009000C3010008C3010008C3010008C301000830
:1000A000C3010008C3010008C3010008C301000820
:1000B000C3010008C3010008C3010008C301000810
:1000C000C3010008C3010008C3010008C301000800
:1000D000C3010008C3010008C3010008C3010008F0
:1000E000C3010008C3010008C3010008C3010008E0
:1000F000C3010008C3010008C3010008C3010008D0
:10010000C30100080000000000000000C301000857
:10011000C3010008C3010008C3010008C3010008AF
:10012000C3010008C3010008C3010008C30100089F
:10013000C3010008C3010008000000000000000027
:10014000C3010008C3010008C3010008000000004B
:10015000000000000000000000000000000000009F
:10016000C3010008C3010008C3010008C30100085F
:10017000C3010008C3010008C3010008C30100084F
:10018000C3010008C30100080000000000000000D7
:10019000C3010008DFF80CD000F07AF800480047EF
:1001A00019250008C8040020064880470648004773
:1001B000FEE7FEE7FEE7FEE7FEE7FEE7FEE7FEE717
:1001C000FEE7FEE7DD220008950100082DE9F05F5B
:1001D0000546002092469B468846064681464024B6
:1001E0001BE0284641464746224600F020F8534689
:1001F0005A46C01A914110D311461846224600F0C3
:1002000038F82D1A67EB01084F46224601200021DD
:1002100000F02FF817EB00094E41201EA4F1010455
:10022000DFDC484631462A464346BDE8F09F202A97
:1002300004DB203A21FA02F00021704721FA02F390
:10024000D040C2F120029140084319467047D2B213
:1002500001E000F8012B491EFBD270470022F6E7AF
:1002600010B513460A4604461946FFF7F0FF20462C
:1002700010BD202A04DB203A00FA02F1002070476A
:100280009140C2F1200320FA03F3194390407047D4
:10029000064C074D06E0E06840F0010394E80700D3
:1002A00098471034AC42F6D3FFF778FFF8280008DF
:1002B00018290008014800F085BB0000300000202C
:1002C0000146406A026C12F0500F03D0806B026B43
:1002D00008461047016C41F4007101640168C96867
:1002E00011F4406F0CD1417E51B9016C21F4807141
:1002F0000164016CC90403D4016C41F00101016483
:1003000000F054BB406A016C41F040010164416C53
:1003100041F00401416400F054BB406A00F050BB5E
:1003200070B504460068816801F0030101292AD1F3
:100330000168C90727D0816801F00D01012914D196
:10034000816841F00201816021680320086001F0AA
:1003500005F9054613E000BF01F000F9401B022833
:100360000DD920688068C00709D0206C40F01000CB
:100370002064606C40F001006064012070BD206862
:100380008068C007E8D1002070BD000070B5044649
:100390000068816801F00301012902D10168C907E1
:1003A00025D18168134A114212D1816841F00101BF
:1003B000816001F0D3F8054614E000BF01F0CEF8EB
:1003C000401B02280ED920680068C043C00709D02E
:1003D000206C40F010002064606C40F0010060640C
:1003E000012070BD20680068C043C007E6D100202E
:1003F00070BD00003F00008010B5074C206838B980
:100400000222211D054800F0FDFD20680028FCD0D7
:100410000020206010BD00000400002030000020FB
:10042000FEE70000014800F093BE000080000020BD
:100430000B4B01681422994207D20A4B1944B1FBB5
:10044000F2F189000164084908E0054B5B42194458
:10045000B1FBF2F18900016401490839C1637047B9
:1004600008040240F8FFFDBF0000024030B590F8DC
:1004700040500124AC40C56B6C6004686360436805
:10048000102B036803D099600068C26030BD9A6089
:100490000068C16030BD704708B500200090402062
:1004A0008DF80000684602F0C0F9C0208DF8000009
:1004B000684602F0BAF90421044802F0DCF98F2002
:1004C0008DF80000684602F0B0F908BD1C0000205D
:1004D0000648818881F0010181800021C1808170FE
:1004E00003480170012000F0FBBE00001000002056
:1004F0000000002072B6FEE77047704770477047F3
:10050000F0B5002302684FF0A04C3E4C94B01F465B
:10051000624501D100940DE0A24202D1CDF800C0A5
:1005200008E0394D394EAA4201D1009602E0B242AC
:1005300014D1009590F83C50012D12D0012580F87F
:100540003C5095686D0753D4009DAD686D074FD43E
:10055000624501D0A24206D12D4A05E0012014B027
:10056000F0BD0220FBE72B4A0D6840F61F7425B34F
:10057000956890F8306025F4604545EA46354E6848
:10058000354395600568AE6806F00306012E02D17A
:100590002D68ED0731D1009DAD6805F00305012DF3
:1005A00003D1009D2D68ED0727D10D6889680D43A3
:1005B0009168A1430D4395601FE0916821F460416B
:1005C000916001688D6805F00305012D02D109686D
:1005D000C90712D10099896801F00301012903D1EB
:1005E00000990968C90708D19168A143916004E0A6
:1005F000016C41F020010164012380F83C70184631
:10060000ADE700000001005000040050000500505C
:100610000003005000070050F0B594B0002400948F
:1006200090F83C202546012A19D0012780F83C701B
:1006300003689A6852077CD44A681F26052A11D29B
:10064000D3F830C002EB4202520096402CEA060C6E
:100650000E6896404CEA060CC3F830C035E0022024
:1006600014B0F0BD0A2A0FD2D3F834C0521F02EBE7
:100670004202520096402CEA060C0E6896404CEA64
:10068000060CC3F834C020E00F2A0FD2D3F838C0CC
:100690000A3A02EB4202520096402CEA060C0E681F
:1006A00096404CEA060CC3F838C00EE0D3F83CC0C4
:1006B0000F3A02EB4202520096402CEA060C0E68FA
:1006C00096404CEA060CC3F83CC00268936813F0ED
:1006D0000C0F4FF0070374D1D1F800E0BEF10A0F00
:1006E00010D39669AEF10A0E0EEB4E0C03FA0CFE17
:1006F00026EA0E06D1F808E00EFA0CFE46EA0E06CF
:1007000096610FE0D2F814C00EEB4E0603FA06FE17
:100710002CEA0E0CD1F808E00EFA06FE4CEA0E0C9C
:10072000C2F814C002684E69D2F80CC0CCF3C10CF8
:1007300000E0FDE04FEA4C0C06FA0CF6D1F810E0B0
:10074000DFF848C2BEF1010F42D0BEF1020F4DD01A
:10075000BEF1030F58D0BEF1040F63D0166E91F8AE
:1007600000C006F0F846B6EB8C6F03D1166E26F08B
:10077000004616660268566E91F800C006F0F8460C
:10078000B6EB8C6F03D1566E26F0004656660268B3
:10079000966E91F800C006F0F846B6EB8C6F03D168
:1007A000966E26F0004696660268D66E91F800C0F6
:1007B00006F0F846B6EB8C6F03D1D66E26F00046F5
:1007C000D6660268966806F00306012E3AD136E036
:1007D000D2F860E00EEA0C0E91F800C046EA8C6692
:1007E0004EEA060E4EF000461666EAE7D2F864E0DE
:1007F0000EEA0C0E91F800C046EA8C664EEA060E30
:100800004EF000465666DCE7D2F868E00EEA0C0EC1
:1008100091F800C046EA8C664EEA060E4EF000469D
:100820009666CEE7D2F86CE00EEA0C0E91F800C0A6
:1008300046EA8C664EEA060E4EF00046C0E71668A1
:10084000F6077AD1CE68012E06D052F8B03F0E7866
:10085000B740BB43136021E052F8B06F91F800C07D
:1008600007FA0CF73E4316600A680A2A0BD306689B
:10087000B769093A02EB420293409F438B68934069
:100880001F43B7610AE007687E69521C02EB42020F
:1008900093409E438B6893401E437E6103684FF0F4
:1008A000A0473B4EBB4201D0B34201D1394A00E0E0
:1008B000394A0968102904D0112907D012290AD011
:1008C0003BE0D2F808C04FEA0C2C08E0D2F808C090
:1008D0004FEACC1C03E0D2F808C04FEA4C2CBCF124
:1008E000000F2ADBBB420DD0B34201D100970CE0D0
:1008F0002A4EDFF8ACC0B34202D1CDF800C004E00C
:10090000634501D1009600E000959E6806F003065D
:10091000012E02D11E68F6070AD1009E8EB1B6687C
:1009200006F00306012E0CD1009E3668F60708D0AB
:10093000016C41F020010164012480F83C50204604
:100940008EE6102908D011291AD01229F5D1916804
:1009500041F480019160F0E7BB42EED1916841F42F
:10096000000191600F49104A0968B1FBF2F101EBF7
:100970008101490000E0491E00910029FBD1DCE71C
:10098000BB42DAD1916841F08071E3E700F0FF8368
:100990000001005000030050000700500004005008
:1009A000000500502C00002040420F000068B0F10C
:1009B000A04F02D1014901200860704704000020C7
:1009C000704770472DE9F041044600680168C34F45
:1009D000C34DC44E49074FF0A04802D541684907AE
:1009E00005D40168090761D5416809075ED5216C06
:1009F000C90603D4216C41F4007121644146884248
:100A000001D0B04202D1D1F8082300E03A6812F0D8
:100A10001F0F1BD0884201D0B04202D1D1F8082369
:100A200000E03A6802F01F02052A0FD0884201D088
:100A3000B04202D1D1F8082300E03A6802F01F0268
:100A4000092A03D0884201D0A84201D1C16803E03D
:100A5000B04200D02946C968C26812F4406F1FD165
:100A600089041DD4016809071AD5816849070FD484
:100A7000416821F00C014160206C20F480702064FA
:100A8000206CC0040CD4206C40F00100206407E00E
:100A9000206C40F010002064606C40F00100606445
:100AA0002046FFF783FF21680C200860206801685A
:100AB000890602D54168890605D4016849066ED5C4
:100AC000416849066BD5216C41F4005121644246CE
:100AD000904201D0B04202D1D2F8081300E0396848
:100AE00011F01F0F1CD0904201D0B04202D1D2F8B9
:100AF000081300E0396801F01F01052910D04146B4
:100B0000884201D0B04202D1D1F8083300E03B68FE
:100B100003F01F03092B03D0884201D0A84201D162
:100B2000C16803E0B04200D02946C968C36C13F025
:100B3000C00F56D18B0105D5C36813F4406F50D157
:100B400089044ED4016849064BD51146884201D02C
:100B5000B04202D1D1F8082300E03A6812F01F0F2A
:100B60001BD0884201D0B04202D1D1F8082300E066
:100B70003A6802F01F02062A0FD0884201D0B04224
:100B800002D1D1F8082300E03A6802F01F02072AD8
:100B900003D0884201D0A84202D1C16804E026E017
:100BA000B04200D02946C96889021AD48168090771
:100BB0000FD4416821F060014160206C20F4805026
:100BC0002064206CC0050CD4206C40F0010020642F
:100BD00007E0206C40F010002064606C40F00100E1
:100BE00060642046FFF788FC216860200860206868
:100BF000016809060CD54068000609D5206C40F450
:100C000080302064204600F0ADF921688020086023
:100C100020680168C9050DD54068C0050AD5206C5B
:100C200040F4003020642046FFF768FC21684FF450
:100C3000807008602068016889050DD540688005CE
:100C40000AD5206C40F4802020642046FFF757FC32
:100C500021684FF40070086020680168C90622D539
:100C60004168C9061FD5616B01290ED0404501D0EE
:100C7000B04201D11C4901E0184908398A68D206FE
:100C800028D0886800F4404050B1206C40F4806067
:100C90002064606C40F0020060642046FFF791FE23
:100CA00021681020086020680168490510D5416856
:100CB00049050DD5216C41F480412164616C41F0FE
:100CC000080161644FF4806101602046FFF715FC64
:100CD000BDE8F081C068C007D6E7000008070050F3
:100CE000000400500001005000030050F0B54FF028
:100CF000000695B0040037463546009605D0206CB6
:100D0000C00648D4206C18B133E0012015B0F0BD06
:100D10006564E564A56484F83C50204600F024F93D
:100D200020688068C00024D42046FFF7F9FA064600
:100D3000206CC0061DD4E6B9206C20F4885040F029
:100D4000020020642068816821F0405181602068A1
:100D5000816841F08051816079487A490068B0FB30
:100D6000F1F000EB8000400000E0401E0090002801
:100D7000FBD120688168C90002D5806880000AD54F
:100D8000206C20F0020040F010002064606C40F005
:100D9000010060640126206CC00672D4002E70D160
:100DA0002068816849076CD4216C21F4807141F07E
:100DB000020121644FF0A04E634B704501D0984270
:100DC00001D1624A00E0624ADFF888C16249704599
:100DD00001D100930EE0984202D1CDF800E009E085
:100DE000884202D1CDF800C004E0604501D10091F5
:100DF00000E00095836803F00303012B02D1006833
:100E0000C00710D1009840B1806800F003000128AD
:100E100003D100980068C00705D19068636820F48A
:100E2000403018439060D4E902201043626B012ADD
:100E300002D04FF4805300E00023627E43EA423345
:100E4000184394F820303843012B0AD1D2B1226CD8
:100E500022F0020242F020022264626C42F001029F
:100E60006264A26A012A37D023688B4201D06345AD
:100E70002DD14FF430714FF4E0778A420AD13A46CF
:100E800027E053E0A28C354B03EB4242024342F48D
:100E90008030E6E74FF480739A4201D10A4618E0A9
:100EA000BA4201D11A4614E0B2F58A5F06D0B2F513
:100EB000845F06D0B2F5865F06D00AE04FF4707208
:100EC00007E04FF4A07204E04FF4C07201E022F496
:100ED00080520243E06A104321688A6812F00C0FC6
:100EE0000BD1CA6844F202039A43CA60217E94F887
:100EF0003020890341EA420108432268D168184B37
:100F000019400143D160206901282068016B21F05C
:100F10000F0102D1E269521E114301636564206C26
:100F200020F0020040F00100206406E0206C20F078
:100F3000020040F01000206401263046E6E6000082
:100F40002C00002040420F00000100500003005020
:100F50000007005000050050000400500000FEFF94
:100F600007C0F0FF7047000070B586B00546142139
:100F70006846FFF773F92868B0F1A04F38D11D49D2
:100F8000486940F080504861486900F08050059001
:100F9000486940F4002048614869002600F40020B8
:100FA000059003200090CDE901066946124800F043
:100FB000A3F9134C1148C4E900068020C4E902607B
:100FC00080002061800060612020A061C001E0619C
:100FD000204600F011F908B1FFF78CFAAC6300224B
:100FE00011461220656200F01FFB122000F00EFB7C
:100FF00006B070BD00100240000800480800024022
:10100000800000202DE9F05F044600688B46924680
:10101000816849077ED494F83C1001290ED0012143
:101020004FF0A048DFF81091444F84F83C10404541
:1010300001D0B84205D1D8F8080304E00220BDE889
:10104000F09FD9F800004FF0000610F01F0F01D0FC
:10105000012504E02046FFF799F9050002D084F845
:101060003C6066E0206C40F60161884340F480708B
:10107000206420684146884201D0B84202D1D1F8AC
:10108000082301E0D9F8002012F01F0F04D0884295
:1010900002D02B4A904207D1216C21F480112164A7
:1010A000C06880010ED413E0226C42F480122264E6
:1010B000B84201D1C86802E021480C30006810F045
:1010C000007F05D0206C20F4005040F48050206454
:1010D000206CC00404D5606C20F00600606400E061
:1010E000666484F83C60A16B16488862A16B164860
:1010F000C862A16B1548086321681C20086020683D
:10110000416841F0100141602068C16841F001016F
:10111000C16000E00CE0216853465A464031A06BA4
:1011200000F091F82068816841F00401816000E0DE
:101130000225284683E70000080700500001005000
:1011400000040050C10200081B030008050300084A
:10115000F0B4C16B0D6801680C68066C042202FAD9
:1011600006F32B420FD063070DD50B689B0603D403
:101170000B6823F004030B6090F840108A40C16BA9
:101180004A60C16A1BE0022303FA06F72F424FF0C0
:10119000000C4FF0010216D0A70714D50C68A40666
:1011A00005D40C6824F00A040C6080F8212090F823
:1011B00040108B40C16B4B6080F820C0816A0029D1
:1011C00018D0F0BC08470823B3402B4212D02307A5
:1011D00010D50B6823F00E030B6090F84010C36B22
:1011E00002FA01F15960826380F8212080F820C062
:1011F000016BE4E7F0BC704770B5040021D0022019
:1012000084F821002268116843F6F0708143D4E924
:1012100001031843D4E903352B431843636918438A
:10122000A3691843E3691843084310602046FFF799
:10123000FFF80020A063012184F8211084F8200029
:1012400070BD012070BD70B5044690F820000025E7
:1012500001280CD0012084F8200094F8216000209F
:10126000012E06D084F820000225284670BD0220F9
:1012700070BD022684F82160A0632068066826F00D
:10128000010606602046FFF7F1F8E06A00282068B2
:10129000016802D041F00E0106E041F00A01016050
:1012A0002068016821F0040101602068016841F0B4
:1012B00001010160D9E7000070B5044600F04EF965
:1012C0000546601C02D004480078044400F046F94A
:1012D000401BA042FAD370BD2000002070470000E0
:1012E000044910B50A68024202D00860FFF7F6FF11
:1012F00010BD0000140401402DE9F04FDFF82492E6
:10130000002209F1040A012603250AF1040B85B025
:101310000F270BF1040EFCE006FA02F423407CD008
:1013200091F804C00CF0030CBCF1010F02D0BCF129
:10133000020F26D1D0F808C0CDF800C04FEA420C09
:1013400005FA0CF8CDF810C0DDF800C02CEA080C46
:10135000CDF800C0D1F80C80DDF810C008FA0CF808
:10136000DDF800C048EA0C08C0F80880D0F804C0D6
:101370002CEA040C0C79C4F30014944044EA0C04E5
:1013800044600C79E443A4070ED0C4684FEA4208D5
:1013900005FA08FC24EA0C04D1F808C00CFA08FC91
:1013A0004CEA040CC0F80CC00C7904F00304022CC5
:1013B00015D1D40800EB84040294246A4FEA427CDD
:1013C0004FEADC6807FA08FC24EA0C04D1F810C0E4
:1013D0000CFA08FC4CEA040C029CC4F820C0046817
:1013E0004FEA420805FA08FC24EA0C0491F804C00C
:1013F0000CF0030C0CFA08FC4CEA040CC0F800C01A
:101400004C6814F4403F08D0474CD4F818C04CF056
:10141000010CC4F818C0A46900E079E004F00104EC
:101420000094424C22F0030C64440294A4684FEAF6
:10143000827C4FEA1C7807FA08FC24EA0C04B0F11D
:10144000904F06D0DFF8E8C0604505D14FF0010CA1
:1014500027E04FF0000C24E0DFF8D8C0604502D14F
:101460004FF0020C1DE0DFF8D0C0604502D14FF014
:10147000030C16E0DFF8C4C0604502D14FF0040C45
:101480000FE0DFF8BCC0604502D14FF0050C08E06A
:10149000DFF8B0C0604502D14FF0060C01E04FF01C
:1014A000070C0CFA08FC4CEA040C029CC4F808C0B7
:1014B000D9F80040CC46D1F804809C435FEAC83894
:1014C00000D51C43CCF80040DAF80040D446D1F8EF
:1014D00004809C435FEA883800D51C43CCF8004068
:1014E000DBF80040DC46D1F804809C435FEAC82862
:1014F00000D51C43CCF80040DEF80040F446D1F89B
:1015000004809C435FEA882800D51C43CCF8004047
:10151000521C0B6833FA02F47FF4FEAE05B0BDE84E
:10152000F08F000000040140001002400000014064
:101530000004004800080048000C00480010004863
:1015400000140048001800480069084000D001203D
:1015500070470AB1816170478162704701488068B5
:101560007047000020000020024881680278114482
:101570008160704720000020074810B5016841F0E5
:1015800010010160032000F06FF8002000F006F861
:1015900000F024F8002010BD0020024070B50D4D71
:1015A00004464FF47A712878B1FBF0F00A490968D3
:1015B000B1FBF0F000F068FD48B9102C07D2002212
:1015C0002146501E00F030F800206C6070BD0120F4
:1015D00070BD0000200000202C0000200A4882B0CE
:1015E000816941F001018161816901F0010100918E
:1015F000C16941F08051C161C06900F08050009024
:10160000072002B000F030B800100240002809DBCB
:1016100000F01F02012191404009800000F1E0200C
:10162000C0F8001170470000F0B40E4B1B680C4668
:10163000C3F30223C3F10705042D00D90425191DA6
:10164000072901D2002300E0DB1E012606FA05F17E
:10165000491E214099409E40761E16403143F0BC01
:1016600000F045BE0CED00E0064900F007020868F6
:101670004FF6FF03184040EA0220034A1043086077
:10168000704700000CED00E00000FA052DE9F84F6E
:101690000446006800269F4DC0036ED5E869C0006F
:1016A00008D4E86940F08050E861E869012600F05C
:1016B0008050009098480168C90512D4016880469E
:1016C00041F480710160FFF749FF074605E000BF64
:1016D000FFF744FFC01B642835D8D8F80000C005C8
:1016E000F6D5286A10F4407053D0A18801F44071F7
:1016F00081424ED0286A4FF4803191FAA1F2B2FAB9
:1017000082F29700854A4FF00108174420F4407098
:10171000C7F8008491FAA1F1B1FA81F102EB8101DD
:101720000023C1F800342862C00732D0FFF716FF4B
:10173000074641F2883A4FF0020907E0FFF70EFF33
:10174000C11B514502D90320BDE8F88F99FAA9F1D0
:10175000B1FA81F141F040014846B8EB511F01D187
:1017600029680CE090FAA0F1B1FA81F141F0400152
:10177000B0EB511F02D1296A01E015E0696A99FABC
:10178000A9F0B0FA80F000F01F0008FA00F2114250
:10179000D4D0286A616820F44070084328621EB1E2
:1017A000E86920F08050E8612078C00705D0286BF8
:1017B000A16820F00300084328632078800705D53E
:1017C000286BE16820F44030084328632078400704
:1017D00005D5286B216920F4402008432863207830
:1017E000800605D5286BE16920F0100008432863C6
:1017F0002068800305D56868616D20F48000084387
:1018000068602078400605D5286B216A20F020000A
:10181000084328632068400305D5286B616A20F0DF
:101820004000084328632078000705D5286B6169CC
:1018300020F44010084328632078C00605D5286BA3
:10184000A16920F44000084328632088800505D55D
:101850006868216B20F40000084368602078000667
:1018600005D5E86AA16A20F4F8700843E862208888
:10187000C00505D5E86AE16A20F478500843E862BB
:101880002088C00405D5286B616B20F48070084364
:1018900028632088800405D5286B216C20F4007013
:1018A000084328632068C00205D5286BA16B20F08F
:1018B0008070084328632068800205D5286BE16B9F
:1018C00020F00070084328632068400205D5286B8B
:1018D000616C20F48060084328632068000205D50D
:1018E000286BA16C20F40060084328632068C001C5
:1018F00005D5286BE16C20F400500843286320686C
:10190000800105D5286B216D20F400400843286331
:10191000002019E700100240007000400000424221
:101920002DE9F0470F46050069D04A4E306800F0B7
:101930000700B84209D2306820F007003843306011
:10194000306800F00700B84259D12878424C80072F
:1019500005D56068A96820F0F00008436060287829
:10196000C0073DD06968012001290DD0022923D08C
:101970005FF0020393FAA3F2B2FA82F242F020027D
:10198000520904D0226803E04FF40033F2E7626AA0
:1019900093FAA3F3B3FA83F303F01F0398400242D0
:1019A0002DD0606820F0030008436060FFF7D6FD8B
:1019B000804641F288390CE04FF00073DAE700BF4F
:1019C000FFF7CCFDA0EB0801494502D90320BDE893
:1019D000F0876068696800F00C00B0EB810FEFD110
:1019E000306800F00700B8420BD9306820F00700DB
:1019F00038433060306800F00700B84201D0012061
:101A0000E5E72878400705D56068E96820F4E060DC
:101A1000084360602878000706D56068296920F4CB
:101A2000605040EAC100606000F01EF86168F0227A
:101A300092FAA2F201F0F001B2FA82F2D140074A22
:101A4000515CC8400649086006480068FFF7A6FDDB
:101A50000020BCE70020024000100240E8280008F7
:101A60002C00002024000020144A10B551681448AE
:101A700001F00C03042B1FD0082B1DD14FF4701460
:101A800094FAA4F401F47013B4FA84F4E3400D4C16
:101A9000D26AE45C0F2393FAA3F302F00F02B3FAC5
:101AA00083F3DA40074BC90310339A5C00231946CD
:101AB000FEF78CFBA0FB040110BD000000100240EB
:101AC00000127A00C82800082DE9F84F04007DD0E4
:101AD0002078FA4DC0074FF0010637D068687704C8
:101AE000C0F38100012819D06868C0F38100022882
:101AF00004D16868C0F3C13002280FD06068B0F527
:101B0000803F24D010B1B0F5A02F2AD0286820F44F
:101B100080302860286820F480201BE097FAA7F026
:101B2000B0FA80F040F02000400901D0286800E0C1
:101B3000686A97FAA7F1B1FA81F101F01F0106FA7C
:101B400001F108424ED060680028C0D04AE0286801
:101B500040F480302860606820B3FFF7FFFC8046C7
:101B60000AE0286840F480202860F0E7FFF7F6FCE0
:101B7000A0EB0800642873D897FAA7F0B0FA80F0B9
:101B800040F02000400901D0286800E0686A97FA18
:101B9000A7F1B1FA81F101F01F0106FA01F1084243
:101BA000E4D01FE0FFF7DAFC804605E0FFF7D6FC43
:101BB000A0EB08006428DED897FAA7F0B0FA80F00E
:101BC00040F02000400902D0286801E0B9E0686ACE
:101BD00097FAA7F1B1FA81F101F01F0106FA01F1BC
:101BE0000842E3D12078DFF8D88280074FF0000A5E
:101BF0004FF002075DD568684FF0F80B10F00C0F3E
:101C000015D06868C0F38100022804D16868C0F369
:101C1000C13001280BD0E068A0B396FAA6F0B0FA64
:101C200080F048F82060FFF799FC814620E097FAA1
:101C3000A7F0B0FA80F040F02000400901D02868F9
:101C400000E0686A97FAA7F1B1FA81F101F01F018B
:101C500006FA01F1084221D0E068012871D11DE0A7
:101C600056E100BFFFF77AFCA0EB09000228A2D8DA
:101C700097FAA7F0B0FA80F040F02000400902D0B7
:101C8000286801E016E0686A97FAA7F1B1FA81F1D5
:101C900001F01F0106FA01F10842E3D028689BFA1F
:101CA000ABF22169B2FA82F220F0F80091400843C9
:101CB000286024E096FAA6F1B1FA81F148F821A053
:101CC000FFF74CFC814605E0FFF748FCA0EB09005C
:101CD0000228CCD897FAA7F0B0FA80F040F02000A4
:101CE000400901D0286800E0686A97FAA7F1B1FAC4
:101CF00081F101F01F0106FA01F10842E4D12078D8
:101D000000076AD56069A0B396FAA6F0B0FA80F031
:101D100008EB8000C0F88064FFF720FC814605E0F6
:101D2000FFF71CFCA0EB09000228A0D897FAA7F047
:101D3000B0FA80F040F06000B6EB501F02D1286886
:101D40000CE09DE197FAA7F0B0FA80F040F0600057
:101D5000B7EB501F01D1286A00E0686A97FAA7F133
:101D6000B1FA81F101F01F0106FA01F21042D7D059
:101D700033E0FFE796FAA6F0B0FA80F008EB8000B7
:101D8000C0F880A4FFF7EAFB814605E0FFF7E6FB19
:101D9000A0EB090002289CD897FAA7F0B0FA80F0CF
:101DA00040F06000B6EB501F01D128680BE097FAB5
:101DB000A7F0B0FA80F040F06000B7EB501F01D1FF
:101DC000286A00E0686A97FAA7F1B1FA81F101F098
:101DD0001F0106FA01F21042D8D12078400774D5CD
:101DE000E8694FF00009C00009D4E86940F080506C
:101DF000E861E8694FF0010900F080500090314837
:101E00000168C90512D4016841F480710160FFF7CF
:101E1000A5FB834606E000BFFFF7A0FBA0EB0B008D
:101E2000642875D827480068C005F5D5A068012842
:101E30000AD008B1052811D0286A20F001002862D4
:101E4000286A20F0040002E0286A40F001002862BD
:101E5000A068C8B3FFF782FB83460DE0286A40F014
:101E600004002862F0E700BFFFF778FBA0EB0B014E
:101E700041F2883081424BD897FAA7F0B0FA80F04F
:101E800040F04000B6EB501F01D128680BE097FAF4
:101E9000A7F0B0FA80F040F04000B7EB501F01D13E
:101EA000286A00E0686A97FAA7F1B1FA81F101F0B7
:101EB0001F0106FA01F21042D6D035E000100240B0
:101EC000000042420070004000E034E0FFF746FBB3
:101ED000834607E0FFF742FBA0EB0B0141F288309D
:101EE000814215D897FAA7F0B0FA80F040F0400090
:101EF000B6EB501F01D128680CE097FAA7F0B0FAB2
:101F000080F040F04000B7EB501F02D1286A01E09A
:101F100089E0686A97FAA7F1B1FA81F101F01F012F
:101F200006FA01F21042D5D1B9F1000F03D0E869E9
:101F300020F08050E861A06980B36968C1F3810135
:101F4000022973D04FF080714F000228524609D009
:101F500091FAA1F0B0FA80F048F82020FFF7FEFADD
:101F6000044664E091FAA1F0B0FA80F08A46C146D6
:101F700048F82020FFF7F2FA804605E0FFF7EEFA76
:101F8000A0EB080002284ED897FAA7F0B0FA80F02C
:101F900040F02000400902D0286801E072E0686A41
:101FA00097FAA7F1B1FA81F101F01F0106FA01F1E8
:101FB0000842E3D1E86A616A20F00F000843E86252
:101FC000D4E907100843696821F476110843686072
:101FD0009AFAAAF0B0FA80F049F82060FFF7BEFA4A
:101FE000044604E0FFF7BAFA001B02281BD897FA50
:101FF000A7F0B0FA80F040F02000400901D0286836
:1020000000E0686A97FAA7F1B1FA81F101F01F01C7
:1020100006FA01F10842E5D034E000BFFFF79EFA6E
:10202000001B022803D90320BDE8F88F15E097FABA
:10203000A7F0B0FA80F040F02000400901D02868F5
:1020400000E0686A97FAA7F1B1FA81F101F01F0187
:1020500006FA01F10842E1D114E00128E4D06868F1
:10206000E96AE36900F4C0329A4209D1226A00F4B5
:102070007010904204D101F00F00616A884201D0D3
:102080000120D1E70020CFE710B5401EB0F1807FDE
:1020900001D3012010BD4FF0E02460610F216017D3
:1020A00000F025F90020A06107202061002010BD6C
:1020B000FEE7000070B58AB000240694079418214A
:1020C00068460894FEF7CAF81E484FF0A041012563
:1020D000C0E9001405618460447680F82050C0E9AE
:1020E0000A540226C661C46080F830500421416160
:1020F00004764463FEF7FAFD08B1FEF7FBF906A982
:1021000010480694FEF7FCF908B1FEF7F3F9062033
:10211000CDE900050725CDE9025404946946094834
:102120000594FEF779FA08B1FEF7E4F9CDE9005617
:1021300069460448FEF770FA002801D0FEF7DAF984
:102140000AB070BD30000020094808B5416941F06F
:10215000010141614069002200F001000090114638
:102160000B20FFF761FABDE808400B20FFF74EBADD
:102170000010024010B586B014216846FEF76EF8D4
:102180001F48416941F480014161416901F48001C6
:102190000591416941F400214161416901F4002147
:1021A0000591416941F400314161416901F4003117
:1021B0000591416941F4802141614069012400F4A5
:1021C000802005900320CDE90004002002900390B8
:1021D00069464FF09040FFF78FF84FF40410CDE9B7
:1021E0000040694607480294FFF786F8002211462E
:1021F0000620FFF719FA0620FFF708FA06B010BD0F
:102200000010024000040048FEE7FEE770477047F8
:1022100012488188F9B9C188491C89B2C180B1F5D9
:102220007A7F18D1012101708178491C81700021C9
:10223000C18082783C2A03D181704278521C42705E
:1022400042783C2A03D14170C278521CC270C278D5
:10225000192A00D1C170FFF787B9000010000020D3
:1022600030B5A5B0282116A8FDF7F8FF142120A845
:10227000FDF7F4FF58216846FDF7F0FF0120010447
:10228000CDE916010225199000241C954FF4E010A9
:102290001F94CDE91D1016A8FFF716FC08B172B601
:1022A000FEE70F20CDE920054FF48060CDE9224004
:1022B000022120A82494FFF733FB08B172B6FEE791
:1022C0008020009040000A906846FFF7DFF9002860
:1022D00001D072B6FEE725B030BD000002480168AB
:1022E00041F470010160704788ED00E0FEE70907E6
:1022F000090E002804DB00F1E02080F8001470478C
:1023000000F00F0000F1E02080F8141D704702E09B
:1023100008C8121F08C1002AFAD170477047002070
:1023200001E001C1121F002AFBD170477B286FD248
:10233000DFE800F03E6A4042448546484A4C9797A1
:10234000979797979797979797979797979797971D
:102350009797979797979797979797979797549750
:10236000975297973E6A4042448546484A4C979711
:102370009797979797565A5C60626466916A6F73F5
:102380007577797B7D7F8385878B8B8D91939597EF
:102390009797504E97585A5E60626466686C717386
:1023A0007577797B7D81838587898B8F9193950064
:1023B0003F2070475B2070474F2070476620704772
:1023C0007D207047072070477F2070476F2070473F
:1023D00008207047012070474020704763207047F5
:1023E000772070475F2070477C2070473920704706
:1023F000582070475E2070477920704771207047E1
:1024000035207047742070470620704704207047BD
:1024100027E01E20FBE71620F9E77520F7E73820B4
:10242000F5E73720F3E75420F1E75C20EFE773206E
:10243000EDE77B20EBE76720E9E75020E7E76D2039
:10244000E5E77820E3E71C20E1E73E20DFE77E2098
:10245000DDE72A20DBE77620D9E76E20D7E71B20CF
:10246000D5E70020D3E7000070B500F023F8FEF7B1
:1024700013F80E4D2878012816D100F01BF8FEF74E
:102480000BF80B4C607840F080006070FEF704F8A9
:102490004FF4C870FEF710FF607880F08000607025
:1024A000FDF7FAFF0020287070BD0000100000202A
:1024B0001C00002070B5154A10786421B0FBF1F3C0
:1024C00001FB13030A20B3FBF0F3114C23701278C5
:1024D000B2FBF0F300FB132262700E4A1378B3FBD9
:1024E000F1F501FB1531B1FBF0F1A1701178002578
:1024F000B1FBF0F200FB1210E070261D605DFFF7EB
:1025000015FF70556D1C042DF8DB70BD1300002005
:102510001800002011000020FFF72EF8FFF7A0FEA2
:10252000FFF728FEFFF710FEFFF7C4FD01224FF072
:10253000904411462046FFF70CF801220221204664
:10254000FFF707F8FFF7B6FFFDF7A6FFDFF8D89112
:10255000DFF8D8B1DFF8D881764C774F4FF00A0A10
:1025600040F6AC56002500BFFFF77EFFD7E000BF66
:10257000FDF742FF714894F900104554FDF78CFFB8
:102580006420FEF799FEFFF795FFFDF785FF6420B5
:10259000FEF792FED8F80010B1424FD994F900002E
:1025A00030B1012818D002282DD0032878D137E087
:1025B00099F8001048460A3189F8001099F800107F
:1025C0001E2906D090F90010172969DD0178143909
:1025D00078E001781E3975E099F800104846491CEA
:1025E00089F8001099F9001091FBFAF30AFB131116
:1025F00019B10178182953D102E001780A3961E054
:102600000178091F5EE09BF8001058460A318BF8EC
:1026100000109BF900103B2942DD01783C3951E064
:102620009BF800105846491C8BF800109BF90030AD
:1026300093FBFAF20AFB123191BBDEE7322956D244
:1026400094F9000030B1012810D002282ED00328C0
:1026500065D139E099F8001048460A3989F8001028
:1026600099F9001000295ADA14212BE099F800108A
:102670004846491E89F8001099F90010002901DA2E
:1026800009211FE090F9002092FBFAF30AFB1321C5
:10269000092906D10178132903D001780A3111E004
:1026A00011E0017813293AD117210BE09BF80010B3
:1026B00058460A398BF800109BF9001000292EDAD1
:1026C00001783C3101702AE09BF800105846491E01
:1026D0008BF800109BF900100029DEDB90F9002038
:1026E00092FBFAF30AFB1321092918D1D5E7D8F890
:1026F0000400B04207D92078401C207020780428BC
:102700000DD125700BE0B0F5FA7F08D22078401E7D
:10271000207094F90000401C01D10320207038780B
:1027200001287FF421AF23E71300002011000020CF
:102730000800002000000020140000201C000020E1
:1027400010B5012000F03EF800F013F84FF090446F
:1027500002E0002000F036F801212046FEF7F4FEEA
:102760000028F6D110BD012211464FF09040FEF72F
:10277000F0BE002201214FF09040FEF7EABE0000BB
:1027800070B505465FF00004FFF7F3FF285D0128F0
:1027900009D000F039F800BFFFF7E5FF641C64B210
:1027A000082CF1DB70BD00F029F8F5E710B5FFF754
:1027B000E0FF00F029F8FFF7D6FFBDE8104000F079
:1027C0001DB8000010B586B0044614216846FDF718
:1027D00045FD01200021084A0291039100901CB19F
:1027E000012C06D1019100E0019069461046FEF7E8
:1027F00083FD06B010BD0000000C0048012202213C
:102800004FF09040FEF7A5BE002202214FF090400D
:10281000FEF79FBE10B5FFF7A6FFFFF7EFFFFFF72C
:10282000F3FFBDE81040FFF7A4BF7CB504460020CD
:1028300000900146019001206A46237800FA01F5D4
:102840002B4000D001235354491CC9B20829F4D3AA
:10285000FFF7E0FF6846FFF793FFFFF78AFFFFF7F8
:1028600082FFFFF76DFF20780321B1EB901F01D0AD
:10287000FFF79CFF7CBD2DE9FC41064600200F467A
:10288000009004460125E846019017E000204146EB
:10289000325D05FA00F31A4000D001220A54401CB0
:1028A000C0B20828F4D36846FFF76AFFFFF761FF5C
:1028B000FFF759FFFFF744FF641CE4B2BC42E5D3C5
:1028C000FFF774FFBDE8FC81020304050607080951
:1028D0000A0B0C0D0E0F1010010203040506070869
:1028E000090A0B0C0D0E0F10000000000000000084
:1028F0000102030406070809182900080000002047
:10290000300000000E230008482900083000002095
:10291000980400001E2300080000000000000000D2
:1029200000000000000000000000000000000000A7
:10293000303030303F3F3F3F0100000010000000CA
:082940000000000000127A0003
:040000050800019559
:00000001FF
